:020000040800F2
:100000007806002439030008DF12000821120008D6
:10001000DD1200083F040008691C00080000000011
:10002000000000000000000000000000E3120008D3
:100030004104000800000000E1120008E512000879
:100040005303000853030008530300085303000838
:100050005303000853030008530300085303000828
:100060005303000853030008530300085303000818
:100070005303000853030008530300085303000808
:1000800053030008530300085303000853030008F8
:1000900053030008530300085303000853030008E8
:1000A00053030008530300085303000853030008D8
:1000B00053030008530300085303000853030008C8
:1000C00053030008530300085303000853030008B8
:1000D00053030008530300085303000853030008A8
:1000E00053030008530300080000000053030008F6
:1000F0005303000853030008530300085303000888
:100100005303000853030008530300085303000877
:100110005303000853030008530300085303000867
:100120005303000853030008530300085303000857
:100130005303000853030008530300085303000847
:1001400000000000000000000000000000000000AF
:100150005303000853030008530300085303000827
:100160005303000853030008530300085303000817
:100170005303000853030008530300085303000807
:1001800053030008530300085303000853030008F7
:1001900053030008530300085303000853030008E7
:1001A00053030008530300085303000853030008D7
:1001B00053030008530300085303000853030008C7
:1001C00053030008530300085303000853030008B7
:1001D00053030008530300085303000853030008A7
:1001E0005303000853030008530300085303000897
:1001F0005303000853030008530300085303000887
:100200005303000853030008530300085303000876
:100210005303000853030008530300085303000866
:1002200053030008530300085303000800000000B4
:1002300053030008530300080000000053030008A4
:100240005303000853030008530300085303000836
:100250005303000853030008530300085303000826
:100260005303000853030008530300085303000816
:100270005303000853030008530300080000000064
:100280005303000853030008530300080000000054
:10029000000000005303000800F002F800F03CF8F2
:1002A0000AA090E8000C82448344AAF10107DA45D1
:1002B00001D100F031F8AFF2090EBAE80F0013F0E7
:1002C000010F18BFFB1A43F001031847F864000040
:1002D00018650000103A24BF78C878C1FAD85207D0
:1002E00024BF30C830C144BF04680C6070470000B0
:1002F0000023002400250026103A28BF78C1FBD82F
:10030000520728BF30C148BF0B6070471FB501F0CE
:100310003BFE1FBD10B510BD00F058F81146FFF7A9
:10032000F5FF01F083FD00F076F803B4FFF7F2FF6C
:1003300003BC00F07DF800000948804709480047E9
:10034000FEE7FEE7FEE7FEE7FEE7FEE7FEE7FEE785
:10035000FEE7FEE704480549054A064B70470000E2
:10036000C9130008990200087800002478060024C8
:1003700078020024780200244FF0000200B51346F2
:1003800094469646203922BFA0E80C50A0E80C50B5
:10039000B1F12001BFF4F7AF090728BFA0E80C5066
:1003A00048BF0CC05DF804EB890028BF40F8042B5F
:1003B00008BF704748BF20F8022B11F0804F18BFCC
:1003C00000F8012B7047704770477047754600F082
:1003D0002BF8AE4605006946534620F007008546D7
:1003E00018B020B5FFF7B6FFBDE820404FF000067B
:1003F0004FF000074FF000084FF0000B21F007010D
:10040000AC46ACE8C009ACE8C009ACE8C009ACE84F
:10041000C0098D46704710B50446AFF300802046F2
:10042000BDE81040FFF781BF004870471800002466
:1004300001491820ABBEFEE7260002007047FEE728
:100440007047000070B5044600F038F90546601C9E
:1004500002D004480078044400F030F9401BA04268
:10046000FAD370BD040000242DE9F84F03247D4D1C
:1004700000234FF001094FF0B04B4FF00F0AE9E0B5
:1004800009FA03F73A4076D00E7906F00306012EFA
:1004900001D0022E18D1D0F808C04FEA430ECE6822
:1004A00004FA0EF82CEA080C06FA0EF646EA0C06D8
:1004B0008660D0F804C00E792CEA070CC6F300164B
:1004C0009E4046EA0C0646600E79F643B6070BD00E
:1004D000C6684FEA43088F6804FA08FC26EA0C064F
:1004E00007FA08F73743C7600E7906F00306022EB5
:1004F00012D1DE080F694FEA437C00EB8606B64650
:10050000366A4FEADC6C0AFA0CF807FA0CF726EAAE
:1005100008063743CEF820700F7906684FEA430883
:1005200007F0030704FA08FC07FA08F726EA0C06A6
:10053000374307604E6816F4403F1CD04A4E376878
:1005400047F00207376036689F0706F002060096FC
:1005500023F0030606F1B046B6463F0FD6F808640E
:10056000DFF808810AFA07FC404526EA0C0603D1A9
:100570004FF0000C41E06CE0DFF8F4C0604502D1C0
:100580004FF0010C39E0DFF8ECC0604502D14FF0CC
:10059000020C32E0DFF8E0C0604502D14FF0030CFE
:1005A0002BE0DFF8D8C0604502D14FF0040C24E006
:1005B000DFF8CCC0604502D14FF0050C1DE0DFF83C
:1005C000C4C0604502D14FF0060C16E0DFF8B8C099
:1005D000604502D14FF0070C0FE0DFF8B0C0604576
:1005E00002D14FF0080C08E0DFF8A4C0604502D14A
:1005F0004FF0090C01E04FF00A0C0CFA07FC4CEA32
:10060000060CCEF808C44F68DBF80060FF0226EA4B
:10061000020600D516435F46CBF80060D1F804C04F
:10062000DBF804605FEA8C2C26EA020600D516434C
:100630007E606E684F6826EA0206BF0300D5164347
:100640006E602E684F6826EA0206FF0300D5164347
:100650002E605B1C0A6832FA03F67FF411AFBDE826
:10066000F88F000080000058F4440258000002583F
:100670000004025800080258000C025800100258EA
:100680000014025800180258001C0258002002589A
:1006900000240258426921EA02030A4043EA024167
:1006A000816170470AB1816170470904FBE700006E
:1006B00001480068000C70470010005C0148806829
:1006C0007047000004000024024881680278114449
:1006D0008160704704000024032010B500F0C6F8C4
:1006E00000F02EFA0F4A104914681368C4F303226D
:1006F00003F00F038A5CC95C02F01F0201F01F01C6
:10070000D0400A4A20FA01F11160094908600F201F
:1007100000F010F808B1012010BD00F079F80020B9
:1007200010BD000018440258921F00081400002455
:100730001000002470B50D4D04462878A0B14FF488
:100740007A71B1FBF0F00A490968B1FBF0F000F0F2
:1007500054FD48B9102C07D200222146501E00F04B
:1007600065F800206C6070BD012070BD040000249D
:1007700010000024154BF0B5083B427813491A606D
:100780000B680A1F23F001030B6043681360057BAD
:10079000C67A827A437B2D07847B45EA0665C77B50
:1007A00090F809C0067A90F800E045EAC24040EAB5
:1007B000834040EA444040EA074040EA0C2040EAD7
:1007C000460040EA0E000860F0BD0000A0ED00E029
:1007D000BFF35F8F044800210368034A23F480338A
:1007E000036070321160704724ED00E0074A40F06A
:1007F0000100064970321060086840F480300860DB
:10080000BFF34F8FBFF36F8F7047000024ED00E000
:10081000054808B5016841F002010160006800F078
:100820000200009008BD0000F44402580E4BF0B4E2
:100830001B680D46C3F30223C3F10706042E00D93B
:100840000426191D072901D2002300E0DB1E012424
:1008500004FA06F19C40491E2940641E9940144048
:100860002143F0BC01F0D0BA0CED00E0064900F0E5
:10087000070210B54FF6FF040868044B204040EA19
:1008800002201843086010BD0CED00E00000FA05DE
:10089000134970B50A68D243520705D5096801F0BB
:1008A0000701814213D118E00A6822F007020243CF
:1008B0000A60FFF703FF0A4D4FF47A760446083DBD
:1008C00007E000BFFFF7FAFE001BB04201D901208C
:1008D00070BD2868C0438004F4D4002070BD0000BF
:1008E0000C4802582DE9F05F04000F467ED0DFF877
:1008F0003882D8F8000000F00F00B8420CD2D8F8C7
:10090000001021F00F013943C8F80010D8F800009A
:1009100000F00F00B84269D12078844D40070AD515
:100920002069296801F07001884204D9296821F002
:1009300070010143296020787C4E361D00070AD5DE
:100940006069316801F07001884204D9316821F092
:100950007001014331602078C0060AD5A069316872
:1009600001F4E061884204D9316821F4E061014377
:1009700031602078DFF8B4B180060BF1080B0CD59C
:10098000E1695846DBF8002002F07002914204D978
:10099000026822F070020A430260207880070AD5BC
:1009A000E068296801F00F01884204D9296821F024
:1009B0000F01014329602078C0073ED05B49A2683F
:1009C0002868183920F47060104328606068022895
:1009D00018D0032819D00968012819D0490700291F
:1009E0004ADADFF848A1AAF1080A00E044E0DAF8A0
:1009F000002022F007020243CAF80020FFF75EFE43
:100A0000814612E009688903E9E709688901E6E798
:100A1000C905E4E7FFF752FEA0EB090141F2883077
:100A2000814202D90320BDE8F09F6168DAF8000036
:100A300000F03800B0EBC10FECD1207880070AD568
:100A4000E068296801F00F01884204D2296821F08A
:100A50000F0101432960D8F80010404601F00F0152
:100A6000B9420BD9016821F00F01394301600068D8
:100A700000F00F00B84201D00120D4E720784007F1
:100A80000AD52069296801F07001884204D22968DA
:100A900021F0700101432960207800070AD56069C0
:100AA000316801F07001884204D2316821F0700190
:100AB000014331602078C0060AD5A069316801F48D
:100AC000E061884204D2316821F4E0610143316081
:100AD000207880060CD5E1695846DBF8002002F04A
:100AE0007002914204D2026822F070020A4302604E
:100AF00000F026F80E492A682B68C2F3032203F09F
:100B00000F038A5CC95C02F01F0201F01F01D04094
:100B1000084A20FA01F11160074908600748006897
:100B2000BDE8F05FFFF706BE0020005218440258EF
:100B3000921F000814000024100000240800002464
:100B4000454970B545480968434B103B11F03802E0
:100B500008D00111082A03D0102A0BD0182A0BD074
:100B6000084670BD19688906FBD51968C1F3C10133
:100B7000C84070BD3A4870BD3749374D18310C1D1B
:100B800024350A68096826682D6802F0030406F017
:100B90000102C1F30511C5F3CC0515FB02F200EE0D
:100BA000102AB8EE400AE9B32F4ADFED2E0AB7EE5D
:100BB000001A6CB1DFED2D1A012C01D0022C43D0AC
:100BC00002EE101A1068F8EE422A81EEA22A1EE008
:100BD0001C68A40611D51B6801EE901A1168C3F3B6
:100BE000C103F8EE612AD84001EE900AC1F3080073
:100BF000F8EE611A81EEA22A0BE001EE901ADFED09
:100C00001C2A00BFF8EE611A106882EEA12AC0F318
:100C1000080001EE900AF8EE611A40EE201A31EE5B
:100C2000810A00E015E022EE000A1068C0F34620B9
:100C3000401C00EE900AF8EE600A80EE201ABCEE2E
:100C4000C10A10EE100A70BD01EE901ADFED092AFC
:100C5000D8E7002070BD0000104402580090D00377
:100C6000006CDC0200000039304402580024744A51
:100C70000024744C001B374C2DE9F05F04007DD03C
:100C8000FF4F2078FE4D1837DFF8F493103DC00772
:100C900048D0D9F80000396800F03800102815D085
:100CA000182803D101F0030002280FD06068B0F5C6
:100CB000803F12D010B1B0F5A02F18D0286820F4D2
:100CC00080302860286820F4802009E028688003AC
:100CD00028D560680028D2D024E0286840F480300D
:100CE0002860606888B1FFF7E9FC064609E02868DB
:100CF00040F480202860F0E7FFF7E0FC801B6428C8
:100D00006FD828688003F7D50CE0FFF7D7FC0646BC
:100D100005E000BFFFF7D2FC801B6428F0D82868EC
:100D20008003F7D4207841F20308D54E0C3E8007AB
:100D300069D5D9F80000396810F038000ED01828AD
:100D400001D188070AD0E06890B3296821F0190121
:100D500001432960FFF7B2FC824631E02868400772
:100D600002D5E06800288AD0E168286820F01900E0
:100D700008432860FFF7A2FC824607E0DFE000BFDF
:100D8000FFF79CFCA0EB0A000228B9D828684007AE
:100D9000F6D500BFFFF78CFC40451BD820694028E2
:100DA00012D0316821F47C3141EA003030602AE011
:100DB00018E000BFFFF782FCA0EB0A0002289FD8D2
:100DC00028684007F6D5E5E7306820F47C3040F429
:100DD0000030EBE7207C316821F0FE4141EA006001
:100DE000E4E70DE1286820F001002860FFF766FCC9
:100DF000824605E0FFF762FCA0EB0A0002288DD8CE
:100E000028684007F6D42078C0065DD5D9F80000E0
:100E1000DFF86CB2396800F03800ABF1040B082839
:100E200010D0182803D101F0030001280AD0E0698E
:100E30000028286838D040F080002860FFF73EFC8A
:100E4000824623E02868C00523D5E069802876D152
:100E50001FE0206A202821D0316821F0F84141EAC2
:100E60008060306030E000BF94F82010DBF8002094
:100E700022F07C5242EA0161CBF8001024E000BF6E
:100E8000FFF71CFCA0EB0A00022898D82868C005D0
:100E9000F6D5FFF70DFC4045E6D8DAE7306820F0DC
:100EA000F84040F08040DCE720F080002860FFF749
:100EB00005FC064605E000BFFFF700FC801B02288A
:100EC0009DD82868C005F7D42078000729D56C483C
:100ED0006169643000298046016811D041F0010148
:100EE0000160FFF7EBFB064605E000BFFFF7E6FBFE
:100EF000801B0228C9D8D8F800008007F6D510E07A
:100F000021F001010160FFF7D9FB064605E000BFB3
:100F1000FFF7D4FB801B022872D8D8F800008007A6
:100F2000F6D42078800623D5A0690028286810D040
:100F300040F480502860FFF7C1FB064605E036E12B
:100F4000FFF7BCFB801B02285AD828688004F7D51D
:100F50000EE020F480502860FFF7B0FB064604E066
:100F6000FFF7ACFB801B02284AD828688004F7D41E
:100F7000207840074FD5DFF80C81D8F8001041F4F5
:100F80008071C8F80010FFF799FB064605E000BF26
:100F9000FFF794FB801B642832D8D8F80000C00506
:100FA000F6D5374EA068603601280AD008B105286A
:100FB00013D0306820F001003060306820F0040069
:100FC00002E0306840F001003060A06841F2883AE9
:100FD00090B1FFF773FB80460AE0306840F00400F0
:100FE0003060EEE7FFF76AFBA0EB0801514507D838
:100FF00030688007F6D50EE0FFF760FB804607E01B
:1010000084E000BFFFF75AFBA0EB080151457DD8F3
:1010100030688007F6D4606AB0B3DFF86480D9F82E
:10102000001008F120084FF6F87B08F10409C1F31D
:10103000C2010329A8F1040A69D00228286820F017
:101040008070286003D0FFF739FB044684E0FFF787
:1010500035FB064605E000BFFFF730FB801B02288A
:1010600077D828688001F7D4E26A40F2F331386813
:1010700054F8283F884340EA02101843386004E0DF
:101080001044025800480258B5E0217B43462289AB
:101090004FF4FE0C208A4FF0FE474902267D521E77
:1010A000401EA1F50071C2F308088AB2761E0CEA50
:1010B000004042EA08020243504607EA06610A433A
:1010C0001A60DAF8002022F00102CAF80020D9F8EC
:1010D0000020266A22EA0B0242EAC602C9F8002072
:1010E000DAF80010A26921F00C011143CAF80010CF
:1010F0000168E26921F0020111430160016841F4D5
:1011000080310160016841F4003101E021E027E015
:101110000160016841F480210160016841F0010132
:101120000160286840F080702860FFF7C7FA044625
:1011300005E000BFFFF7C2FA001B022809D82868A3
:101140008001F7D557E000BFFFF7B8FA001B02286F
:1011500002D90320BDE8F09F28688001F4D44AE05A
:1011600039680128D8F8000021D0A26A01F00303F1
:1011700093421CD1E26AC1F305118A4217D1216B57
:10118000C0F30802491E8A4211D1616BC0F34622A6
:10119000491E91420BD1A16BC0F30642491E9142F8
:1011A00005D1E16BC0F30660491E814201D00120E8
:1011B000D0E7A16C4E46D9F80000C0F3CC008142C4
:1011C00019D0DAF80000554620F00100CAF80000F6
:1011D000FFF774FA4FEA0007FFF770FAB842FBD046
:1011E000A26C306820EA0B0040EAC2003060286838
:1011F00040F0010028600020ACE7401EB0F1807F85
:1012000010B501D3012010BD4FF0E02460610F2123
:10121000601700F0F9FD0020A0610721216110BDD9
:10122000FEE700002DE9F04387B014216846FFF780
:10123000A3F82648016841F480710160016801F457
:1012400080710591016841F080010160016801F041
:1012500080010591016841F00101016000684FF4CF
:101260005067DFF86C80002200F0010039460590DD
:101270004046FFF717FADFF85C904FF480560022E3
:1012800031464846FFF70EFA0024009701256946CB
:101290004046CDE901540394FFF7E6F8CDE9006537
:1012A000CDE9025469464846FFF7DEF8102069464A
:1012B000CDE9000408480294FFF7D6F80122314630
:1012C0004846FFF7EFF907B0BDE8F083E044025865
:1012D00000200258001C025800000258FEE7FEE7FA
:1012E00070477047FFF7F0B970B59CB04C21684665
:1012F000FFF742F8202113A8FFF73EF80220FFF77E
:10130000C7FA2E4900242E480A6822F001020A601A
:101310000A68026842F440420260026802F44042F5
:101320001B9202689204FCD5264A136843F002031C
:101330001360126802F002021B92026842F44042FB
:10134000026002680A6842F001020A60096801F05E
:1013500001011B9101688904FCD50DF1280C0220C4
:1013600009900A21C8228CE807004FF4A0230F90AF
:1013700008250D9001260E90CDE91054CDE90063AB
:1013800068461294FFF778FC08B172B6FEE7402079
:101390001A903F210301CDE916500322CDE918032D
:1013A00013AB13A883E816000421FFF79BFA00286B
:1013B00001D072B6FEE71CB070BD00002C040058CE
:1013C00018480258F44402582C48F0B52C4A0168D9
:1013D00041F470010160106800F00F00072804D28A
:1013E000106820F00F00C01D106026490020254C19
:1013F00010340B68244D43F001030B6020600B6830
:101400002B400B60136803F00F03072B04D91368FC
:1014100023F00F03DB1D13601A4C1C4A18341C4BBD
:10142000261D371D2060174C1A4D28343060261DAC
:101430003860371D23603B1D35601C1D3A60251D3B
:101440002E1D1860331D22602860326018600A6803
:101450000C4B114C22F4802260330A601860206823
:101460006FF30F00B0F1005F03D20C490120C1F807
:10147000080143F2D2000A490860F0BD88ED00E09F
:1014800000200052004402587FEDF6EA800201017C
:10149000000202020000FF010010005C0080005109
:1014A000004000522DE9F0410025044640F23F1370
:1014B00040F2DF122946284600F0F0F9E6434FF4E7
:1014C000F0774FF4A0780024B0B200F0CBF9641CA0
:1014D000BC42F9D36D1C4545F5D3BDE8F081000051
:1014E000F0B587B014216846FEF746FF3F48016813
:1014F00041F001010160016801F0010105910168FD
:1015000041F040010160016801F04001059101686E
:1015100041F080010160016801F0800105910168DE
:1015200041F480710160016801F4807105910168E6
:1015300041F400710160016801F4007105910168D6
:1015400041F48061016000680125294E4FF48064F8
:1015500000F48060059002206946CDE90045CDE9A0
:1015600002503046FEF780FF012221463046FFF749
:1015700099F800241F4E4FF4E04000906946304631
:10158000CDE901540394FEF76FFF1B4F80200090BC
:101590006946CDE9015438460394FEF765FF0420FF
:1015A0000090CDE90154694638460394FEF75CFF8C
:1015B000E8030090CDE90154694630460394FEF7F4
:1015C00053FF09200090CDE9015469463846039441
:1015D000FEF74AFF4FF68F700090CDE9015407489F
:1015E00069460394FEF740FF07B0F0BDE04402589F
:1015F00000180258002002580028025800240258FF
:1016000070B514460D46014600F081F9294608469A
:1016100000F091F92C2000F009F9E043BDE870409A
:1016200080B200F01FB9000070B57D4C012280210E
:101630002046FFF737F801227A489102FFF732F887
:10164000002220460421FFF72DF8C820FEF7FAFEFD
:10165000012220460421FFF725F8C820FEF7F2FEFC
:10166000714D012291032846FFF71CF800222846FD
:101670004FF40051FFF716F8012220460421FFF72E
:1016800011F81420FEF7DEFE002220460421FFF7A9
:1016900009F81420FEF7D6FE012220460421FFF7A8
:1016A00001F8C820FEF7CEFE012220468021FEF779
:1016B000F9FF6420FEF7C6FE112000F0B7F86420A1
:1016C000FEF7C0FEF02000F0B1F8C32000F0CAF829
:1016D000F02000F0ABF8962000F0C4F8362000F0BF
:1016E000A5F8E82000F0BEF83A2000F09FF80520A9
:1016F00000F0B8F8E82000F099F8402000F0B2F8C7
:10170000822000F0AFF8072000F0ACF8182000F0BD
:10171000A9F8272000F0A6F80A2000F0A3F8B620C8
:1017200000F0A0F8332000F09DF8C52000F07EF80E
:10173000272000F097F8C22000F078F8A72000F0EA
:1017400091F8E02000F072F8F02000F08BF8012012
:1017500000F088F8062000F085F80F2000F082F8ED
:10176000122000F07FF81D2000F07CF8362000F0F9
:1017700079F8542000F076F8442000F073F80C203B
:1017800000F070F8182000F06DF8162000F06AF8EC
:10179000132000F067F8152000F064F8E12000F055
:1017A00045F8F02000F05EF8012000F05BF805201D
:1017B00000F058F80A2000F055F80B2000F052F81D
:1017C000072000F04FF8322000F04CF8442000F0E1
:1017D00049F8442000F046F80C2000F043F81820A7
:1017E00000F040F8172000F03DF8132000F03AF820
:1017F000162000F037F8F02000F018F83C2000F038
:1018000031F8F02000F012F8692000F02BF81420D5
:10181000FEF718FEBDE87040292000F007B8000070
:1018200000280258001802580020025870B50C4CCD
:1018300000224FF4805106462046FEF733FF4FF456
:101840000055204600222946FEF72CFF304600F0C6
:10185000F5F929462046BDE870400122FEF722BF77
:101860000020025870B50C4C012206461103204698
:10187000FEF718FF4FF40055204600222946FEF7D8
:1018800011FF304600F0DAF929462046BDE87040E5
:101890000122FEF707BF0000002002582DE9F041A9
:1018A00007461C464FF4F070154682420E4601D2A0
:1018B000874201D340F2DF154FF4A070844201D279
:1018C000864201D340F23F142A20FFF7AFFF380AC7
:1018D000FFF7C8FF3846FFF7C5FF280AFFF7C2FF2A
:1018E0002846FFF7BFFF2B20FFF7A0FF300AFFF7C6
:1018F000B9FF3046FFF7B6FF200AFFF7B3FF2046D7
:10190000FFF7B0FFBDE8F0412C20FFF78FBF70B5A7
:101910000C4605462A20FFF789FF280AFFF7A2FF99
:10192000E8B2FFF79FFF200AFFF79CFFE0B2BDE897
:101930007040FFF797BF70B50C4605462B20FFF7A8
:1019400075FF280AFFF78EFFE8B2FFF78BFF200A2A
:10195000FFF788FFE0B2BDE87040FFF783BF0000EB
:101960002DE9F05F0025984617460C46DDF828B0B3
:1019700006462A20FFF75AFF300AFFF773FF30466A
:10198000FFF770FF0F36B6B2300AFFF76BFF304635
:10199000FFF768FF2B20FFF749FF200AFFF762FFE0
:1019A0002046FFF75FFF0F34A4B2200AFFF75AFF6B
:1019B0002046FFF757FF2C20FFF738FF0F486FEA4C
:1019C000070A6FEA0809002700EB4B18002418F8F3
:1019D0000560F00702D01FFA8AF001E01FFA89F0D3
:1019E000FFF740FF641C7608E4B2082CF1D36D1CAD
:1019F0007F1C202FEDB2E9D3BDE8F09FE26600081E
:101A00002DE9FF4F203A4FF0000B81B05C46D0B279
:101A100063B1012B13D0022B24D0032B55D12C49B9
:101A2000202501EBC01A102040210EE000EB400100
:101A3000284A06200C2502EB810A294605E02649A2
:101A400001EB001A08201025294688460199084410
:101A5000B0F5F07F39D802982844B0F5A07F34D88B
:101A6000002630E01D4A00EBC0010C20182502EBD7
:101A7000810A2421E9E700BF01994FF000091AF813
:101A8000067001EB0B000090380607D502980E9AFD
:101A9000204481B2009880B2FFF7B2FD641CE4B22A
:101AA000AC4205D10BF10100002400F0FF0B08E06F
:101AB000790609F101000F0E00F0FF09B9F1080FD6
:101AC000E2D3761CF6B24645D6D305B0BDE8F08F1A
:101AD00062370008A21F000816240008062A000822
:101AE000FEB50024DDE908568DE8700000F04CF8E2
:101AF000FEBD2DE9FC5F044698460D460C98E0B10A
:101B000001281DD002281ED003283BD110272026F3
:101B1000A146A1180195481C4FF4F072904200D8DC
:101B20000246A819431C4FF4A0711FFA82FB8B4296
:101B300000D819461FFA81FA1EE006270C26E7E7AF
:101B400008271026E4E70C271826E1E7E119594594
:101B500002D3A8194C4685B2A919514501D3019C5D
:101B60004D460D9829460C9B00902046FFF748FFF4
:101B7000E01984B208F1010898F80020A2F12000D1
:101B80005E28E3D9BDE8FC9F2DE9FF4F81B0824676
:101B90000EA81E464FF0000890E8020A5FEA09000E
:101BA0000CD001280CD002280CD0032842D11025DB
:101BB00051B101293ED13027002439E00625F7E74D
:101BC0000825F5E70C25F3E72027F5E7301B401E35
:101BD0000A220121C3B2002002E05143401CC0B2DE
:101BE0009842FAD303980A22B8F1000FB0FBF1F142
:101BF000B1FBF2F002FB101005D1711E8C4202DA2B
:101C000050B14FF001084B463030CDF800B015FB15
:101C100004A1C2B288B206E015FB04A04B463A46C6
:101C200080B2CDF800B00299FFF7EAFE641CE4B27E
:101C3000B442CBD305B0BDE8F08F000070B5094DBC
:101C40004FF480440022064621462846FEF72AFD2E
:101C5000304600F00BF821462846BDE870400122CE
:101C6000FEF720BD00200258FEE700002DE9F04FEE
:101C700087B0C0F34032C10B0692C0F30032059228
:101C8000C0F3C0220492C0F380220392C0F340222A
:101C90000292C0F30022019200F00107C0F3803BE2
:101CA000C0F3C0120092C0F3801AC0F34019C0F311
:101CB0000018C0F3C006C0F38005C0F3400401D093
:101CC000012200E000224D480821FEF7EBFCBBF1A9
:101CD000000F01D0012200E0002248480421FEF755
:101CE000E1FC069808B1012200E0002243480221ED
:101CF000FEF7D8FC059808B1012200E000223F4819
:101D00000121FEF7CFFC049800283D4801D00122B4
:101D100000E000224FF40041FEF7C4FCDFF8E4B01D
:101D2000039808B1012200E0002258460121FEF785
:101D3000B9FC02984FF4006108B1012200E00022D2
:101D40002E48FEF7AFFC01984FF4806108B10122E4
:101D500000E000222948FEF7A5FC00984FF400712E
:101D600008B1012200E000222448FEF79BFCBAF1F2
:101D7000000F4FF4807101D0012200E000221F48C3
:101D8000FEF790FCB9F1000F01D0012200E0002223
:101D90001A488021FEF786FCB8F1000F01D001221D
:101DA00000E0002258460821FEF77CFC0EB101221B
:101DB00000E0002211484FF40041FEF773FC4FF49D
:101DC00080410DB1012200E000220C48FEF76AFCC0
:101DD0004FF400510CB1012200E000220748FEF749
:101DE00061FC4FF480510FB1012200E00022034852
:101DF00007B0BDE8F04FFEF755BC000000240258C4
:101E00000020025800280258090700284FEA1161F3
:101E100004DB00F1E02080F80014704700F00F00B0
:101E200000F1E02080F8141D704700001FB5002469
:101E30000094019402940394FEF7CAFC01258DF8E6
:101E40000C501F268DF8086087208DF809008DF84A
:101E50000D5068468DF800508DF80A408DF80E4000
:101E60008DF8014001948DF80B408DF80F40FEF77E
:101E700081FC0420FEF7BAFCFEF72EFCFFF734FAD3
:101E8000FFF7D0F9FFF72CFBFFF7CEFB4FF6FF77FC
:101E90003846FFF707FBA946A0460325B346BA46D6
:101EA0005FEAC62733484FF40061FEF7F3FBB42224
:101EB00000216420CDE9005B2FA3FFF71AFE642206
:101EC0004C46C82146463C20CDE900982AA3FFF79E
:101ED00010FE28214BF64040012300904122084685
:101EE000FFF78EFD27480223CDE900473C21027809
:101EF0003220FFF7F5FD002240F2FF73A02100968B
:101F00000A20FFF72DFD00944FF4FC64A0215646F3
:101F1000242053462246FFF723FD02203346A0210A
:101F20003A4600903C20FFF71BFD1F223346A021BC
:101F300000954C20FFF714FD04203346A0212246D3
:101F400000905C20FFF70CFD052033461F22009017
:101F5000A0217620FFF704FD06203346A0213A4653
:101F600000908620FFF7FCFC4FF47A70FEF76AFAC7
:101F700098E7000000200258526164696F4D617358
:101F800074657200000000244FF04070E1EE100A0A
:101F90007047000000000102030401020304060769
:101FA0000809000000000000000000000000000020
:101FB00000003F4000000000000000003000400032
:101FC00030004000000009000BC03D000BC03D0088
:101FD000090018C024407FE0224031800000180032
:101FE00024C01B000D803240018003801C4027402C
:101FF0001C8007400040100060000000000000004E
:1020000000000000000000001F8020404020000071
:10201000402020401F8000000000090006001F80B3
:10202000060009000000040004003F8004000400D2
:10203000000000100060000000000000000004002C
:102040000400040004000400000000000040000040
:10205000000000000000002001C006003800400021
:1020600000001F802040204020401F800000000012
:1020700010403FC000400000000018C02140224036
:1020800024401840000010802040244024401B8041
:10209000000002000D0011003FC0014000003C8024
:1020A000244024402440238000001F8024402440FA
:1020B0003440038000003000200027C0380020009A
:1020C00000001B802440244024401B8000001C0092
:1020D00022C0224022401F80000000000000084073
:1020E000000000000000000000000460000000008C
:1020F0000000000004000A00110020804040090098
:10210000090009000900090000000000404020808B
:1021100011000A00040018002000234024001800C9
:1021200000001F802040274029401F400000004041
:1021300007C039000F0001C0004020403FC02440CC
:1021400024401B8000001F80204020402040308021
:10215000000020403FC0204020401F800000204061
:102160003FC024402E4030C0000020403FC02440EB
:102170002E00300000000F001080204022403380ED
:10218000020020403FC0040004003FC02040204027
:1021900020403FC020402040000000602020202040
:1021A0003FC02000200020403FC024400B0030C032
:1021B000204020403FC020400040004000C03FC0C1
:1021C0003C0003C03C003FC0000020403FC00C402A
:1021D00023003FC020001F802040204020401F805F
:1021E000000020403FC024402400180000001F8051
:1021F0002140214020E01FA0000020403FC024409B
:10220000260019C0004018C02440244022403180DC
:102210000000300020403FC020403000000020007F
:102220003F80004000403F80200020003E0001C071
:10223000070038002000380007C03C0007C0380005
:102240000000204039C0060039C0204000002000B6
:10225000384007C0384020000000304021C02640F0
:10226000384020C00000000000007FE040204020F7
:102270000000000070000C0003800040000000001F
:10228000402040207FE000000000000020004000CF
:1022900020000000000000100010001000100010CE
:1022A00000100000000040000000000000000000DE
:1022B00002800540054003C0004020003FC00440AC
:1022C00004400380000000000380044004400640F6
:1022D000000000000380044024403FC00040000094
:1022E00003800540054003400000000004401FC07B
:1022F000244024402000000002E005500550065014
:10230000042020403FC00440040003C000400000FF
:10231000044027C00040000000000010001004101E
:1023200027E00000000020403FC00140070004C03B
:102330000440204020403FC000400040000007C053
:10234000040007C0040003C00000044007C00440AC
:10235000040003C0004000000380044004400380E8
:102360000000041007F00450044003800000000047
:1023700003800440045007F00010044007C00240EE
:10238000040004000000000006400540054004C0B1
:102390000000000004001F80044000400000040012
:1023A00007800040044007C000400400070004C04C
:1023B000018006000400060001C0070001C00600FD
:1023C0000000044006C0010006C0044000000410E4
:1023D000071004E00180060004000000044005C06E
:1023E0000640044000000000000004007BE04020A4
:1023F0000000000000000000FFF0000000000000EE
:1024000040207BE00400000000004000800040000D
:10241000200020004000000000000000000000003C
:102420000000000000000000000000001FCC000CB5
:1024300000000000000000000800300060000800FC
:10244000300060000000022003FC1E20022003FC7C
:102450001E200220000000000E1811043FFF10840F
:102460000C78000000000F0010840F3800C00778BF
:1024700018840078000000780F8410C411240E988E
:1024800000E40084000808006800700000000000FC
:1024900000000000000000000000000007E0181825
:1024A000200440020000000040022004181807E049
:1024B0000000000000000240024001800FF0018097
:1024C0000240024000000080008000800FF8008081
:1024D0000080008000000001000D000E00000000E0
:1024E00000000000000000000080008000800080EC
:1024F0000080008000800000000C000C0000000044
:1025000000000000000000000006001800600180CC
:10251000060018002000000007F00808100410044E
:10252000080807F000000000080408041FFC00046D
:1025300000040000000000000E0C101410241044D1
:1025400011840E0C000000000C181004110411047A
:1025500012880C700000000000E00320042408240E
:102560001FFC0024000000001F98108411041104B7
:10257000108810700000000007F008881104110492
:1025800018880070000000001C00100010FC1300F0
:102590001C001000000000000E381144108410844C
:1025A00011440E38000000000700088C104410444D
:1025B000088807F00000000000000000030C030C76
:1025C0000000000000000000000000010106000003
:1025D0000000000000000000008001400220041004
:1025E000080810040000022002200220022002201D
:1025F000022002200000000010040808041002203D
:1026000001400080000000000E001200100C106C51
:1026100010800F00000003E00C1813E4142417C40A
:10262000082807D000000004003C03C41C400740F9
:1026300000E4001C000410041FFC11041104110428
:102640000E880070000003E00C1810041004100441
:1026500010081C10000010041FFC100410041004CB
:10266000080807F0000010041FFC1104110417C42F
:1026700010040818000010041FFC1104110017C0FA
:1026800010000800000003E00C18100410041044AF
:102690001C780040000010041FFC108400800080A3
:1026A00010841FFC10040000100410041FFC100410
:1026B00010040000000000030001100110011FFEC3
:1026C00010001000000010041FFC110403801464AB
:1026D000181C1004000010041FFC10040004000467
:1026E0000004000C000010041FFC1F0000FC1F0071
:1026F0001FFC1004000010041FFC0C04030000E089
:1027000010181FFC100007F0080810041004100433
:10271000080807F0000010041FFC108410801080CF
:1027200010800F00000007F0081810241024101C5F
:10273000080A07F2000010041FFC1104110011C068
:1027400011300E0C000400000E1C110410841084C3
:1027500010441C3800001800100010041FFC100466
:1027600010001800000010001FF8100400040004FE
:1027700010041FF8100010001E0011E0001C007073
:1027800013801C0010001FC0103C00E01F0000E080
:10279000103C1FC000001004180C163401C001C00A
:1027A0001634180C100410001C00130400FC130451
:1027B0001C00100000000804101C10641084130496
:1027C0001C04101800000000000000007FFE400202
:1027D000400240020000000030000C000380006056
:1027E000001C0003000000004002400240027FFE87
:1027F0000000000000000000000020004000400039
:102800004000200000000001000100010001000163
:102810000001000100010000400040002000000015
:102820000000000000000000009801240144014461
:10283000014400FC000410001FFC00880104010496
:10284000008800700000000000700088010401048E
:1028500001040088000000000070008801040104E9
:1028600011081FFC0004000000F801440144014469
:10287000014400C800000000010401040FFC110421
:10288000110411001800000000D6012901290129B6
:1028900001C90106000010041FFC008401000100B2
:1028A000010400FC000400000104190419FC0004E8
:1028B00000040000000000000003000101011901F4
:1028C00019FE0000000010041FFC0024004001B4A9
:1028D000010C010400000000100410041FFC00049F
:1028E000000400000000010401FC0104010001FCDF
:1028F0000104010000FC010401FC0084010001004E
:10290000010400FC0004000000F8010401040104BB
:10291000010400F80000010101FF00850104010429
:1029200000880070000000000070008801040104AD
:10293000010501FF00010104010401FC0084010400
:10294000010001800000000000CC012401240124CA
:1029500001240198000000000100010007F80104B3
:10296000010400000000010001F80004000400045C
:10297000010801FC0004010001800170000C00103E
:1029800001600180010001F0010C003001C0003045
:10299000010C01F0010000000104018C00740170C1
:1029A000018C01040000010101810171000E001879
:1029B00001600180010000000184010C0134014428
:1029C0000184010C00000000000000000000010074
:1029D0003EFC400240020000000000000000FFFF3B
:1029E0000000000000000000400240023EFC010028
:1029F0000000000000000000600080008000400037
:102A00004000200020000000000000000000000046
:102A100000000000000000000000000000000000B6
:102A200000000000000000000000000000000000A6
:102A30000000000000000000000F80380FFE380F7B
:102A400080380000000000000000000000000000CE
:102A5000000000000100000600000C00003800002B
:102A60003100000600000C000038000030000000BB
:102A700000000000000061800067F807F980006135
:102A8000800061800061800061800067F807F98044
:102A900000618000000000000000000001C0E003B1
:102AA000E0F00630080418081FFFFE040E08078730
:102AB000F00381E000000000000001F000060C00BF
:102AC000040408060C7001F9C0000E00003BE00091
:102AD000EC18070808040C180003E00000000001CF
:102AE000E00007F003F818041C0804170807E1D0F9
:102AF00003C0E00023B0003C0800200800001000E4
:102B000000000000000100003100003200001C0045
:102B100000000000000000000000000000000000B5
:102B200000000000000000000000000000000000A5
:102B30000000000000007F0001FFC00780F00C00D3
:102B40001810000420000200000000000020000215
:102B50001000040C00180780F001FFC0007F000087
:102B60000000000000000000000000000000000065
:102B700000004200006600006600003C00001800F3
:102B800003FFC0001800003C000066000066000063
:102B900042000000000008000008000008000008D3
:102BA0000000080001FFC000080000080000080045
:102BB00000080000080000000000000100003100D3
:102BC000003200001C0000000000000000000000B7
:102BD00000000000000000000000000000000800ED
:102BE00000080000080000080000080000080000BD
:102BF00008000008000008000008000000000000B5
:102C0000000000000000380000380000380000001C
:102C100000000000000000000000000000000000B4
:102C2000000000000000000600001C000070000111
:102C300080000E0000380000C0000700001C0000EB
:102C4000300000000000000000007F8001FFE00372
:102C500080700600180400080400080600180380AD
:102C60007001FFE0007F8000000000000000000015
:102C700001000801000801000803FFF807FFF80041
:102C8000000800000800000800000000000000002C
:102C90000001C03802C0580400980401180402184A
:102CA000040418061C1803F81801E0F800000000DE
:102CB000000000000001C0E003C0F00400080408A8
:102CC0000804080806180803F41801E7F00001E0FA
:102CD000000000000000000000000300000D0000E4
:102CE000110000610000810803010807FFF80FFFD1
:102CF000F80001080001080000000000000000E0EA
:102D000007FCD0060808061008061008061008067A
:102D10001838060FF00607C0000000000000000091
:102D200000003F8001FFE00384300208180410080F
:102D3000041008041008071810030FF00007C00063
:102D4000000000000000000003C0000700000600B3
:102D5000000600F80607F806180006E00007000065
:102D600006000000000000000001E1E003F7F006AB
:102D70003410041808041808040C08040C0806167B
:102D80001803F3F001C1E000000000000000F800AB
:102D900003FC300306380402080402080402080495
:102DA00004100308F001FFC0007F000000000000D5
:102DB000000000000000000000000000000070386B
:102DC00000703800703800000000000000000000B3
:102DD00000000000000000000000000000000000F3
:102DE0000000301A00301C0000000000000000004D
:102DF00000000000000000000000000000080000CB
:102E00001400002200004100008080010040020008
:102E1000200400100800080000000000000021004D
:102E200000210000210000210000210000210000FD
:102E3000210000210000210000210000000000000E
:102E400000000000080008040010020020010040FB
:102E500000808000410000220000140000080000F3
:102E6000000000000003C00004C0000400000800CF
:102E700038080F380808380810000C300007E00048
:102E800003C000000000000000003F8000FFE003DE
:102E90008070020F1006708804C088048308047FC5
:102EA0008802C09003012000FE40000008000018C6
:102EB0000001F8003E0801C20007020007E200001E
:102EC000FE00001FC80001F80000380000080400E0
:102ED0000807FFF807FFF8040808040808040808B2
:102EE00004080806180803F41801E7F00001E000E0
:102EF0000000000000003F8001FFE003807002003E
:102F0000180400080400080400080400100600204B
:102F10000780C000000004000807FFF807FFF8045E
:102F200000080400080400080400180200100380D0
:102F30007001FFE0007F8000000004000807FFF838
:102F400007FFF8040808040808040808040808042F
:102F50003E0804000806001801006000000004009C
:102F60000807FFF807FFF804080804080004080031
:102F7000040800043E000600000600000180000076
:102F80000000000000003F8001FFE00380700600A9
:102F9000180400080402080402080203F00783F082
:102FA00000020000020004000807FFF807FFF80411
:102FB00008080008000008000008000008000408D5
:102FC0000807FFF807FFF8040008000000000000F1
:102FD00004000804000804000807FFF807FFF804CD
:102FE00000080400080400080000000000000000C1
:102FF00000000006000007000001040001040001B9
:1030000004000307FFFE07FFFC04000004000004A7
:10301000000004000807FFF807FFF8040C08001878
:1030200000003E0004C7800503C80600F80400380D
:1030300004001800000804000807FFF807FFF80460
:103040000008000008000008000008000008000058
:103050000800001800006000000004000807FFF8E6
:1030600007800807FC00007FC00003F80007C000CD
:10307000780007800807FFF807FFF804000804003D
:103080000807FFF807000803C00000E00000380050
:10309000001E000007000001C00400F007FFF80454
:1030A0000000000000007F8001FFE0038070060048
:1030B0001804000804000806001803003001FFE0AF
:1030C000007F8000000004000807FFF807FFF804F5
:1030D0000408040400040400040400040400060CB2
:1030E0000003F80001F000000000000000007F80F5
:1030F00001FFE00380700600880400880400C80611
:10310000003C03003E01FFE6007F84000000040055
:103110000807FFF807FFF8040808040800040C007B
:10312000040F00040BC00610F003F03801E00800A3
:10313000000800000001E0F803F030063010041829
:1031400008041808040C08040C080206180207F00A
:103150000781E00000000180000600000400000478
:10316000000004000807FFF807FFF8040008040047
:103170000004000006000001800004000007FFE0DA
:1031800007FFF00400180000080000080000080015
:10319000000800000804001007FFE004000004001D
:1031A0000006000007E00007FE00041FE00001F831
:1031B0000000380001E0043E0007C00006000004E3
:1031C000000004000007E00007FFC0041FF800072C
:1031D000C007F80007FF80043FF80007C004F800AC
:1031E00007000004000000000004000806001807A3
:1031F000C07805F1C8003E00001F800463E8078026
:10320000F806001804000800000004000006000092
:1032100007800007E008047C08001FF80007F8009A
:10322000180804E008070000060000040000000081
:10323000000100080600380400F80403E8040F0841
:10324000047C0805F00807C00807001804006000A7
:10325000000000000000000000000000000000006E
:10326000003FFFFE2000022000022000022000029A
:10327000200002000000000000000000080000071D
:10328000000000C0000038000006000001C000007F
:103290003000000E000001000000000000000000EF
:1032A0002000022000022000022000022000023F35
:1032B000FFFE000000000000000000000000000011
:1032C00000000000000000080000100000300000B6
:1032D0002000003000001000000800000000000086
:1032E00000000000010000010000010000010000DA
:1032F00001000001000001000001000001000001C8
:10330000000001000001000000000000000000209B
:10331000000020000010000010000000000000006D
:10332000000000000000000000000000000000F0AD
:103330000019F8001B1800220800260800240800C5
:103340002410003FF8001FF80000080000180000DB
:103350000004000007FFF80FFFF000181800100825
:10336000002008002008003018001FF0000FC000E7
:1033700000000000000007C0001FF000183000200F
:1033800008002008002008003C08001C1000006015
:103390000000000000000000000007C0001FF00057
:1033A000381800200800200800200804101007FF2B
:1033B000F80FFFF000001000000000000000000007
:1033C0000007C0001FF00012300022180022080081
:1033D0002208003208001E10000E2000000000002D
:1033E0000000200000200800200801FFF803FFF87B
:1033F000062008042008042008072000030000001D
:10340000000000000000000E000E6E001FF30031EF
:10341000B10020B10020B1003191001F13002E1E19
:1034200000200E00300000000004000807FFF80F25
:10343000FFF8001008002000002000002008003FD6
:10344000F8001FF800000800000000000000000065
:10345000002008002008002008063FF8063FF8007A
:103460000008000008000008000000000000000044
:103470000000000000000300000300200100200104
:10348000002003063FFE063FFC0000000000000095
:10349000000000000004000807FFF80FFFF800011B
:1034A00088000300002FC00038F8002038002008F2
:1034B00000000800000000000000000004000804F4
:1034C000000804000807FFF80FFFF80000080000DC
:1034D00008000008000000000000002008003FF87D
:1034E000003FF8001008002000003FF8003FF800FF
:1034F0001008002000003FF8003FF800000800001E
:1035000000002008003FF8003FF8001008001000FD
:10351000002000002008003FF8001FF8000008000D
:1035200000000000000007C0000FF000183000305D
:1035300008002008002008003008001830000FF0B4
:103540000007C0000000000000002001003FFF0055
:103550003FFF001011002009002008002008003063
:1035600038001FF0000FC00000000000000007C07E
:10357000001FF00038180020080020080020090073
:103580001011001FFF003FFF00000100000000209D
:1035900008002008002008003FF8003FF800080855
:1035A000001008002008002000003000003000005B
:1035B0000000000000000000000C78001E1800331E
:1035C000080023080021080021880021980030F01D
:1035D0000038600000000000000020000020000013
:1035E000200000FFF003FFF8002008002008002062
:1035F0000800003000000000000000000000200073
:10360000003FF0007FF800001800000800000800EC
:103610002010003FF8007FF00000100000000000C4
:1036200000002000003000003C00003F800023F03C
:10363000000078000070002380003C000030000093
:103640002000002000003C00003FE00023F80000C4
:10365000E0002700003E00003FE00021F80001E00C
:10366000003E0000200000000000200800200800AC
:103670003838003E680027800003C8002CF8003866
:103680003800201800200800000000000000200082
:10369000003003003C01003F830023EC0000700079
:1036A0002380003C000020000020000000000000FB
:1036B000000000000038080020380020F80023E84F
:1036C000002F88003E080038080020180000700015
:1036D00000000000000000000000000000000000EA
:1036E000000008000014001FF7FC30000620000254
:1036F00000000000000000000000000000000000CA
:103700000000000000000000FFFFFF0000000000BC
:1037100000000000000000000000000000000000A9
:103720002000023000061FF7FC0014000008000013
:103730000000000000000000000000000000000089
:103740000018000060000040000040000020000061
:103750001000000800000400000400000C0000102D
:103760000000000000000000000000000000000059
:103770000000000000000000000000000000000049
:103780000000000000000000000000000000000039
:103790000000000000000000000000000000000029
:1037A0000000000000000000000000000000000019
:1037B0000000000000000000000000000000000009
:1037C00000000000000000000000000000000000F9
:1037D00000000000000000000000000000000000E9
:1037E00000000000000000000000000000000000D9
:1037F0000000000000000000000007F000C007FF0C
:10380000E1E007F001E0000000C00000000000005F
:1038100000000000000000000000000000000000A8
:103820000000000000000000000000000000000098
:103830000000000000000000000000000000000088
:103840000000000000000000000000000000000078
:103850000000000000000000000000000000000068
:10386000000000000000000000000020000001C077
:103870000000078000001F0000001E0000001C2048
:10388000000001C00000078000001F0000001E00B3
:1038900000001C000000000000000000000000000C
:1038A0000000000000000000000000000000000018
:1038B0000000000000000000000000000000000008
:1038C00000000000000000000000000000000000F8
:1038D00000000000000000000000000000000000E8
:1038E00000000000000000180C0000180C00001878
:1038F0000FE0001FFC0003F80C0000180C0000187B
:103900000C0000180C0000180C0000180FE0001F3D
:10391000FC0003F80C0000180C0000180C0000005C
:103920000000000000000000000000000000000097
:103930000000000000000000000000000000000087
:103940000000000000000000000000000000000077
:103950000000000000000000000000000000000067
:103960000000000000000000000000000780007858
:1039700007C000FC0640010E0020030700200203E0
:1039800080200FFFFFFC0201C0200200E060013038
:10399000704001F03F8000F01F00000000000000B8
:1039A0000000000000000000000000000000000017
:1039B0000000000000000000000000000000000007
:1039C00000000000000000000000000000000000F7
:1039D00000000000000000000000000000000000E7
:1039E000000000FE000001FF000003018000020053
:1039F0008060030181C001FF070000FE1800000085
:103A0000E0000003BF00000CFFC00071806001C136
:103A10000020030180600000FFC000003F000000A4
:103A20000000000000000000000000000000000096
:103A30000000000000000000000000000000000086
:103A40000000000000000000000000000000000076
:103A50000000000000000000000000000000000066
:103A6000000000001F0000007FC000FCC0C001FF7C
:103A700080600303E0200202782002061E2003FC7F
:103A8000074001F00380000103C000011C60000139
:103A9000E020000100200001004000000180000043
:103AA0000000000000000000000000000000000016
:103AB0000000000000000000000000000000000006
:103AC00000000000000000000000000000000000F6
:103AD00000000000000000000000000000000000E6
:103AE000000000000000002000001C6000001C40DE
:103AF00000001F8000000F00000000000000000018
:103B000000000000000000000000000000000000B5
:103B100000000000000000000000000000000000A5
:103B20000000000000000000000000000000000095
:103B30000000000000000000000000000000000085
:103B40000000000000000000000000000000000075
:103B50000000000000000000000000000000000065
:103B60000000000000000000000000000000000055
:103B7000000000000000000000000000000000073E
:103B8000F800003FFF00007807C001C000E003001C
:103B900000300400000808000004100000020000CB
:103BA0000000000000000000000000000000000015
:103BB0000000000000000000000000000000000005
:103BC00000000000000000000000000000000000F5
:103BD00000000000000000000000000000000000E5
:103BE00000000000000010000002080000040400B3
:103BF00000080300003001C000E0007807C0003F6B
:103C0000FF000007F80000000000000000000000B6
:103C100000000000000000000000000000000000A4
:103C20000000000000000000000000000000000094
:103C30000000000000000000000000000000000084
:103C40000000000000000000000000000000000074
:103C50000000000000000000000000000000000064
:103C600000000000000000000000000C1800000E22
:103C70003800000E380000063000000360000061CC
:103C8000438000FFFF8000614300000360000006E6
:103C90003000000E3800000E3800000C1800000044
:103CA0000000000000000000000000000000000014
:103CB0000000000000000000000000000000000004
:103CC00000000000000000000000000000000000F4
:103CD00000000000000000000000000000000000E4
:103CE0000000000000000000000000008000000054
:103CF00080000000800000008000000080000000C4
:103D00008000007FFF0000008000000080000000B5
:103D100080000000800000008000000080000000A3
:103D20000000000000000000000000000000000093
:103D30000000000000000000000000000000000083
:103D40000000000000000000000000000000000073
:103D50000000000000000000000000000000000063
:103D600000000000000000000001000000E300006F
:103D700000E2000000FC00000078000000000000ED
:103D80000000000000000000000000000000000033
:103D90000000000000000000000000000000000023
:103DA0000000000000000000000000000000000013
:103DB0000000000000000000000000000000000003
:103DC00000000000000000000000000000000000F3
:103DD00000000000000000000000000000000000E3
:103DE00000000000000000008000000080000000D3
:103DF00080000000800000008000000080000000C3
:103E000080000000800000008000000080000000B2
:103E100080000000800000008000000080000000A2
:103E20000000000000000000000000000000000092
:103E30000000000000000000000000000000000082
:103E40000000000000000000000000000000000072
:103E50000000000000000000000000000000000062
:103E600000000000000000000000000000C0000092
:103E700001E0000001E0000000C0000000000000C0
:103E80000000000000000000000000000000000032
:103E90000000000000000000000000000000000022
:103EA0000000000000000000000000000000000012
:103EB0000000000000000000000000000000000002
:103EC00000000000000000000000000000000000F2
:103ED00000000000000000000000000000000000E2
:103EE0000000000000000000000C0000003800008E
:103EF00000E00000038000000E0000003800000019
:103F0000E00000038000000E00000038000000E028
:103F10000000038000000E000000180000000000F8
:103F20000000000000000000000000000000000091
:103F30000000000000000000000000000000000081
:103F40000000000000000000000000000000000071
:103F50000000000000000000000000000000000061
:103F600000000000000000000000000FF800007FCB
:103F7000FF0000F00780018000C003000060020025
:103F800000200200002002000020030000600180E9
:103F900000C000E00380007FFF00000FF800000079
:103FA0000000000000000000000000000000000011
:103FB0000000000000000000000000000000000001
:103FC00000000000000000000000000000000000F1
:103FD00000000000000000000000000000000000E1
:103FE0000000000000000000000000000000008051
:103FF000002000800020008000200080006001FF81
:10400000FFE003FFFFE00000006000000020000070
:104010000020000000200000000000000000000060
:104020000000000000000000000000000000000090
:104030000000000000000000000000000000000080
:104040000000000000000000000000000000000070
:104050000000000000000000000000000000000060
:1040600000000000000000000000007800E0009860
:1040700001600100026002000460020008600200AA
:104080001060020020600200406003008060018335
:10409000006001FE00E0007C0780000000000000DE
:1040A0000000000000000000000000000000000010
:1040B0000000000000000000000000000000000000
:1040C00000000000000000000000000000000000F0
:1040D00000000000000000000000000000000000E0
:1040E0000000000000000000000000F0078001F068
:1040F00007C0010000400200002002010020020170
:10410000002002010020030380200186804001FC82
:10411000C0C000787F8000001E000000000000008A
:10412000000000000000000000000000000000008F
:10413000000000000000000000000000000000007F
:10414000000000000000000000000000000000006F
:10415000000000000000000000000000000000005F
:10416000000000000000000008000000380000000F
:1041700048000001880000060800000C081000300C
:1041800008100040081001FFFFF003FFFFF003FFDD
:10419000FFF00000081000000810000008100000E8
:1041A000000000000000000000000000000000000F
:1041B00000000000000000000000000000000000FF
:1041C00000000000000000000000000000000000EF
:1041D00000000000000000000000000000000000DF
:1041E0000000000000000000000000000780001F29
:1041F000864003E1002003020020030400200304A2
:1042000000200304002003040020030600400303F1
:1042100001C00301FF8003007E00000000000000D9
:10422000000000000000000000000000000000008E
:10423000000000000000000000000000000000007E
:10424000000000000000000000000000000000006E
:10425000000000000000000000000000000000005E
:10426000000000000000000000000007FC00003F0C
:10427000FF000070C380008180C001010060030264
:10428000002002020020020200200202002002039D
:10429000004001C180C000C0FF8000007E0000001F
:1042A000000000000000000000000000000000000E
:1042B00000000000000000000000000000000000FE
:1042C00000000000000000000000000000000000EE
:1042D00000000000000000000000000000000000DE
:1042E0000000000000000000000000F0000003C01B
:1042F00000000380000003000000030007E003004B
:104300003FE00301C0000306000003180000036043
:104310000000038000000300000000000000000017
:10432000000000000000000000000000000000008D
:10433000000000000000000000000000000000007D
:10434000000000000000000000000000000000006D
:10435000000000000000000000000000000000005D
:1043600000000000000000001F0000783F8000FCFB
:1043700060C0018EC04003078020020300200201BC
:104380008020020180200201C0200301E04001865C
:1043900070C000FC3F8000781F000000000000009B
:1043A000000000000000000000000000000000000D
:1043B00000000000000000000000000000000000FD
:1043C00000000000000000000000000000000000ED
:1043D00000000000000000000000000000000000DD
:1043E000000000000000003F000000FF81C001C08D
:1043F000C1C0010060200200202002002020020035
:10440000202002002060020040C00100C18000C1E5
:104410008F00007FFE00001FF00000000000000081
:10442000000000000000000000000000000000008C
:10443000000000000000000000000000000000007C
:10444000000000000000000000000000000000006C
:10445000000000000000000000000000000000005C
:10446000000000000000000000000000000000004C
:1044700000000000000000000000000300C0000772
:1044800081E0000781E0000300C0000000000000A0
:10449000000000000000000000000000000000001C
:1044A000000000000000000000000000000000000C
:1044B00000000000000000000000000000000000FC
:1044C00000000000000000000000000000000000EC
:1044D00000000000000000000000000000000000DC
:1044E00000000000000000000000000000000000CC
:1044F000000000000000000000000006006600064A
:104500000078000000000000000000000000000033
:10451000000000000000000000000000000000009B
:10452000000000000000000000000000000000008B
:10453000000000000000000000000000000000007B
:10454000000000000000000000000000000000006B
:10455000000000000000000000000000000000005B
:1045600000000000000000000000000080000001CA
:10457000C0000003600000063000000C18000018A6
:104580000C00003006000060030000C00180010044
:1045900000400200002004000010000000000000A5
:1045A000000000000000000000000000000000000B
:1045B00000000000000000000000000000000000FB
:1045C00000000000000000000000000000000000EB
:1045D00000000000000000000000000000000000DB
:1045E000000000000000000410000004100000049F
:1045F000100000041000000410000004100000046B
:10460000100000041000000410000004100000045A
:10461000100000041000000410000004100000004E
:10462000000000000000000000000000000000008A
:10463000000000000000000000000000000000007A
:10464000000000000000000000000000000000006A
:10465000000000000000000000000000000000005A
:104660000000000000000000000004000010020034
:1046700000200100004000C0018000600300003005
:10468000060000180C00000C1800000630000003A3
:1046900060000001C0000000800000000000000079
:1046A000000000000000000000000000000000000A
:1046B00000000000000000000000000000000000FA
:1046C00000000000000000000000000000000000EA
:1046D00000000000000000000000000000000000DA
:1046E000000000000000000000000078000001F859
:1046F00000000238000002000000040000C00400B6
:1047000079E0040081E0040100C00403000002021B
:1047100000000306000001FC000000F8000000009B
:104720000000000000000000000000000000000089
:104730000000000000000000000000000000000079
:104740000000000000000000000000000000000069
:104750000000000000000000000000000000000059
:10476000000000000000000FF800003FFE00007095
:10477000078000C000C00101F8400307FC20021EB2
:1047800004200230082002203020023FFC20013F9C
:10479000044001800CC000E03180001FC200000016
:1047A0000000000000000000000000000000000009
:1047B00000000000000000000000000000000000F9
:1047C00000000000000000000000000000000000E9
:1047D00000000000000000000000000000000000D9
:1047E00000000000002000000060000003E0000066
:1047F0003E200003E020003E200003E02000038074
:10480000200007FC2000003FE0000003FE20000025
:104810003FE0000001E00000002000000020000058
:104820000000000000000000000000000000000088
:104830000000000000000000000000000000000078
:104840000000000000000000000000000000000068
:104850000000000000000000000000000000000058
:10486000000000000000020000200200002003FF02
:10487000FFE003FFFFE0020100200201002002012F
:104880000020020100200201002003030020018615
:10489000806001FCC0C000F87F8000001F000000A5
:1048A0000000000000000000000000000000000008
:1048B00000000000000000000000000000000000F8
:1048C00000000000000000000000000000000000E8
:1048D00000000000000000000000000000000000D8
:1048E0000000000000000007F800003FFF0000701B
:1048F000078000C000C0010000400300002002004B
:104900000020020000200200002002000020010020
:104910000040018000C003C001800030060000009C
:104920000000000000000000000000000000000087
:104930000000000000000000000000000000000077
:104940000000000000000000000000000000000067
:104950000000000000000000000000000000000057
:10496000000000000000020000200200002003FF01
:10497000FFE003FFFFE00200002002000020020031
:1049800000200200002003000060010000400180C0
:1049900000C000F00780007FFE00000FF80000005C
:1049A0000000000000000000000000000000000007
:1049B00000000000000000000000000000000000F7
:1049C00000000000000000000000000000000000E7
:1049D00000000000000000000000000000000000D7
:1049E000000000000000020000200200002003FF81
:1049F000FFE003FFFFE002010020020100200201AE
:104A00000020020100200201002002038020020F8A
:104A1000E0200300006003C000E00060030000002D
:104A20000000000000000000000000000000000086
:104A30000000000000000000000000000000000076
:104A40000000000000000000000000000000000066
:104A50000000000000000000000000000000000056
:104A6000000000000000020000200200002003FF00
:104A7000FFE003FFFFE0020100200201002002012D
:104A80000000020100000201000002010000020318
:104A90008000030FE0000300000003C0000000607E
:104AA0000000000000000000000000000000000006
:104AB00000000000000000000000000000000000F6
:104AC00000000000000000000000000000000000E6
:104AD00000000000000000000000000000000000D6
:104AE0000000000000000007F800003FFE0000701A
:104AF000078001C001C00100004003000020020047
:104B000000200200002002000020010020200100FF
:104B1000204003C03F8000303F80000020000000A4
:104B20002000000000000000000000000000000065
:104B30000000000000000000000000000000000075
:104B40000000000000000000000000000000000065
:104B50000000000000000000000000000000000055
:104B60000000020000200200002003FFFFE003FF1E
:104B7000FFE0020080200200802000008000000092
:104B8000800000008000020080200200802003FFDF
:104B9000FFE003FFFFE00200002002000020000011
:104BA0000000000000000000000000000000000005
:104BB00000000000000000000000000000000000F5
:104BC00000000000000000000000000000000000E5
:104BD00000000000000000000000000000000000D5
:104BE00000000000000000000000000000000200C3
:104BF000002002000020020000200200002003FF2D
:104C0000FFE003FFFFE0020000200200002002009E
:104C10000020020000200000000000000000000052
:104C20000000000000000000000000000000000084
:104C30000000000000000000000000000000000074
:104C40000000000000000000000000000000000064
:104C50000000000000000000000000000000000054
:104C60000000000000000000000E0000000F000027
:104C7000000F00000001020000010200000102001C
:104C800000030200000603FFFFFC03FFFFF8020021
:104C9000000002000000020000000200000000000E
:104CA0000000000000000000000000000000000004
:104CB00000000000000000000000000000000000F4
:104CC00000000000000000000000000000000000E4
:104CD00000000000000000000000000000000000D4
:104CE000000000000000020000200200002003FF7E
:104CF000FFE003FFFFE00200C020020100200007E8
:104D00008000000FE0000030F80002603E200380C9
:104D10000F20030003E0020000E00200002000007A
:104D20000020000000000000000000000000000063
:104D30000000000000000000000000000000000073
:104D40000000000000000000000000000000000063
:104D50000000000000000000000000000000000053
:104D6000000000000000020000200200002003FFFD
:104D7000FFE003FFFFE0020000200200002000002F
:104D800000200000002000000020000000200000A3
:104D9000002000000060000000E0000003000000B0
:104DA0000000000000000000000000000000000003
:104DB00000000000000000000000000000000000F3
:104DC00000000000000000000000000000000000E3
:104DD00000000000000000000000000000000000D3
:104DE0000000020000200200002003FFFFE003E0BB
:104DF000002003FF0020001FF0000001FF800000E2
:104E00000FE000001E000003E000003E002003E071
:104E1000002003FFFFE003FFFFE00200002002008C
:104E20000020000000000000000000000000000062
:104E30000000000000000000000000000000000072
:104E40000000000000000000000000000000000062
:104E50000000000000000000000000000000000052
:104E60000000020000200200002003FFFFE003809A
:104E7000002003F0002000FC0000001F00000007DD
:104E8000C0000001F00000007C0002001F80020052
:104E900007E003FFFFE00200000002000000000046
:104EA0000000000000000000000000000000000002
:104EB00000000000000000000000000000000000F2
:104EC00000000000000000000000000000000000E2
:104ED00000000000000000000000000000000000D2
:104EE000000000000000000FF800003FFE0000F08E
:104EF0000780018000C00100004002000020020085
:104F0000002002000020020000200100004001807B
:104F100000C000F00380003FFE00000FF80000001A
:104F20000000000000000000000000000000000081
:104F30000000000000000000000000000000000071
:104F40000000000000000000000000000000000061
:104F50000000000000000000000000000000000051
:104F6000000000000000020000200200002003FFFB
:104F7000FFE003FFFFE0020080200200802002002B
:104F80008000020080000200800002008000030117
:104F900080000183000000FE0000007C0000000093
:104FA0000000000000000000000000000000000001
:104FB00000000000000000000000000000000000F1
:104FC00000000000000000000000000000000000E1
:104FD00000000000000000000000000000000000D1
:104FE000000000000000000FF800007FFF0000F04C
:104FF0000380018001C0010006400200042002007D
:10500000042002000620020003E0010000F80180F5
:10501000005C00E0038C003FFF0C000FFC18000058
:105020000000000000000000000000000000000080
:105030000000000000000000000000000000000070
:105040000000000000000000000000000000000060
:105050000000000000000000000000000000000050
:10506000000000000000020000200200002003FFFA
:10507000FFE003FFFFE00201002002010020020127
:1050800080000201E0000201FC0003033F80018672
:1050900007E001FC00E000F8002000000020000014
:1050A0000000000000000000000000000000000000
:1050B00000000000000000000000000000000000F0
:1050C00000000000000000000000000000000000E0
:1050D00000000000000000000000000000000000D0
:1050E000000000000000000000000078060000FE44
:1050F00001E0018600C0030300400203002002011A
:105100008020020180200201C0200200C020010096
:10511000E060018070C003E03F8000001F000000DD
:10512000000000000000000000000000000000007F
:10513000000000000000000000000000000000006F
:10514000000000000000000000000000000000005F
:10515000000000000000000000000000000000004F
:105160000000000000000060000003800000030059
:10517000000002000000020000200200002003FFE7
:10518000FFE003FFFFE00200002002000020020019
:105190000000020000000380000000E000000000AA
:1051A00000000000000000000000000000000000FF
:1051B00000000000000000000000000000000000EF
:1051C00000000000000000000000000000000000DF
:1051D00000000000000000000000000000000000CF
:1051E0000000020000000200000003FFFF0003FFB8
:1051F000FFC002000040020000600000002000002C
:1052000000200000002000000020020000400200FA
:10521000008003FFFF000200000002000000000009
:10522000000000000000000000000000000000007E
:10523000000000000000000000000000000000006E
:10524000000000000000000000000000000000005E
:10525000000000000000000000000000000000004E
:10526000000000000000020000000200000003C077
:10527000000003FC0000023FC0000003F800000033
:105280007F80000007E00000078000007800020334
:10529000C000023C000003C0000002000000020049
:1052A00000000000000000000000000000000000FE
:1052B00000000000000000000000000000000000EE
:1052C00000000000000000000000000000000000DE
:1052D00000000000000000000000000000000000CE
:1052E00000000200000003C0000003FF8000023F36
:1052F000FE0002007FE000000F000200F00003EF5C
:10530000000003FF8000020FFE0000003FE00000ED
:105310001F000207E00003F8000003000000020085
:10532000000000000000000000000000000000007D
:10533000000000000000000000000000000000006D
:10534000000000000000000000000000000000005D
:10535000000000000000000000000000000000004D
:105360000000000000000200002002000020038076
:1053700000E003F0032002FC0C20021F30000007B5
:10538000C0000007F00002187C0002601F200380AC
:1053900003E0020000E00200002000000020000006
:1053A00000000000000000000000000000000000FD
:1053B00000000000000000000000000000000000ED
:1053C00000000000000000000000000000000000DD
:1053D00000000000000000000000000000000000CD
:1053E000000000000000020000000300000003C0F5
:1053F000000003F80000023E0020020FC020000160
:10540000FFE000007FE000038020021C002002700B
:105410000000038000000200000002000000000005
:10542000000000000000000000000000000000007C
:10543000000000000000000000000000000000006C
:10544000000000000000000000000000000000005C
:10545000000000000000000000000000000000004C
:1054600000000000000000000020006000E0038059
:1054700003E003000FA002003E200200F820020318
:10548000E020020F8020023E00200278002003E08E
:105490000060038000E00200030000000000000044
:1054A00000000000000000000000000000000000FC
:1054B00000000000000000000000000000000000EC
:1054C00000000000000000000000000000000000DC
:1054D00000000000000000000000000000000000CC
:1054E00000000000000000000000000000000000BC
:1054F000000000000000000000001FFFFFFC100083
:10550000000410000004100000041000000410004B
:10551000000410000004100000040000000000005F
:10552000000000000000000000000000000000007B
:10553000000000000000000000000000000000006B
:10554000000000000000000000000000000000005B
:10555000000000000000000000000000000000004B
:105560000000000000000000000000000000070034
:10557000000003C0000000780000001E00000003CF
:10558000C0000000F00000001E00000007800000C6
:1055900000F00000003C00000006000000000000D9
:1055A00000000000000000000000000000000000FB
:1055B00000000000000000000000000000000000EB
:1055C00000000000000000000000000000000000DB
:1055D00000000000000000000000000000000000CB
:1055E0000000000000000000000010000004100097
:1055F000000410000004100000041000000410005B
:105600000004100000041FFFFFFC00000000000069
:10561000000000000000000000000000000000008A
:10562000000000000000000000000000000000007A
:10563000000000000000000000000000000000006A
:10564000000000000000000000000000000000005A
:10565000000000000000000000000000000000004A
:10566000000000000000000000000000000000003A
:105670000000020000000400000008000000180004
:1056800000001000000018000000180000000400D6
:105690000000020000000000000000000000000008
:1056A00000000000000000000000000000000000FA
:1056B00000000000000000000000000000000000EA
:1056C00000000000000000000000000000000000DA
:1056D00000000000000000000000000000000000CA
:1056E00000000000000100000001000000010000B7
:1056F00000010000000100000001000000010000A6
:105700000001000000010000000100000001000095
:105710000001000000010000000100000001000085
:105720000001000000000000000000000000000078
:105730000000000000000000000000000000000069
:105740000000000000000000000000000000000059
:105750000000000000000000000000000000000049
:105760000000000000000000000000000000100029
:1057700000001000000010000000180000000800E9
:105780000000040000000000000000000000000015
:105790000000000000000000000000000000000009
:1057A00000000000000000000000000000000000F9
:1057B00000000000000000000000000000000000E9
:1057C00000000000000000000000000000000000D9
:1057D00000000000000000000000000000000000C9
:1057E0000000000000000000038000018FC00003E3
:1057F0008C60000618200004102000041020000413
:10580000202000042040000620400003FFC00001CB
:10581000FFE00000002000000020000000C00000A9
:105820000000000000000000000000000000000078
:105830000000000000000000000000000000000068
:105840000000000000000000000000000000000058
:105850000000000000000000000000000000000048
:10586000000000000000020000000200000003FF32
:10587000FFE007FFFFC0000180C0000200600002DF
:105880000020000400200004002000040020000686
:105890000040000300C00001FF800000FE00000087
:1058A00000000000000000000000000000000000F8
:1058B00000000000000000000000000000000000E8
:1058C00000000000000000000000000000000000D8
:1058D00000000000000000000000000000000000C8
:1058E0000000000000000000000000007E00000139
:1058F000FF80000381C00002004000060020000479
:105900000020000400200004002000060020000306
:10591000C0400001C0800000030000000000000043
:105920000000000000000000000000000000000077
:105930000000000000000000000000000000000067
:105940000000000000000000000000000000000057
:105950000000000000000000000000000000000047
:105960000000000000000000000000007E000001B8
:10597000FF80000380C000060060000400200004D7
:10598000002000040020020400400202008003FF07
:10599000FFE007FFFFC000000040000000400000E3
:1059A00000000000000000000000000000000000F7
:1059B00000000000000000000000000000000000E7
:1059C00000000000000000000000000000000000D7
:1059D00000000000000000000000000000000000C7
:1059E0000000000000000000000000007E00000138
:1059F000FF80000311C0000210400004106000048A
:105A000010200004102000041020000610200003C5
:105A100010400001F0C00000710000000000000014
:105A20000000000000000000000000000000000076
:105A30000000000000000000000000000000000066
:105A40000000000000000000000000000000000056
:105A50000000000000000000000000000000000046
:105A6000000000000000000000000004000000042E
:105A700000200004002000040020007FFFE001FF60
:105A8000FFE00104002003040020020400200204BF
:105A90000020020400000200000001C0000001C05C
:105AA00000000000000000000000000000000000F6
:105AB00000000000000000000000000000000000E6
:105AC00000000000000000000000000000000000D6
:105AD00000000000000000000000000000000000C6
